:020000040800F2
:10000000280800204102000871220008D11F0008C2
:100010006D220008A11000087928000800000000E7
:10002000000000000000000000000000E3220008C3
:10003000A510000800000000E1220008E5220008E9
:100040005B0200085B0200085B0200085B0200081C
:100050005B0200085B0200085B0200085B0200080C
:100060005B0200085B0200085B0200085B020008FC
:100070005B0200085B0200085B0200085B020008EC
:100080005B0200085B0200085B0200085B020008DC
:100090005B0200085B0200085B0200085B020008CC
:1000A0005B0200085B0200085B0200085B020008BC
:1000B0005B0200085B0200085B0200085B020008AC
:1000C0005B0200085B0200085B0200085B0200089C
:1000D0005B0200085B0200085B0200085B0200088C
:1000E0005B0200085B0200085B0200085B0200087C
:1000F0005B0200085B0200085B0200085B0200086C
:100100005B0200085B0200085B0200085B0200085B
:100110005B0200085B0200085B0200085B0200084B
:100120005B0200085B0200085B0200085B0200083B
:100130005B0200085B0200085B0200085B0200082B
:100140005B0200085B0200085B0200085B0200081B
:100150005B0200085B0200085B0200085B0200080B
:100160005B0200085B0200085B0200085B020008FB
:100170005B0200085B0200085B0200080000000050
:100180005B0200085B02000800F002F800F049F88A
:100190000AA090E8000C82448344AAF10107DA45E2
:1001A00001D100F03EF8AFF2090EBAE80F0013F0EB
:1001B000010F18BFFB1A43F0010318478028000005
:1001C000A0280000103A24BF78C878C1FAD8520796
:1001D00024BF30C830C144BF04680C6070470000C1
:1001E0000023002400250026103A28BF78C1FBD840
:1001F000520728BF30C148BF0B607047782900F014
:10020000EB80002070471FB502F0E0FB9DE8030083
:1002100000F068FC00F05AFA1FBD10B500F0BFFAFC
:1002200010BD00F022FB1146FFF7EDFF02F05AFB74
:1002300000F026FC03B4FFF7F0FF03BC00F0E4FD80
:100240000948804709480047FEE7FEE7FEE7FEE76A
:10025000FEE7FEE7FEE7FEE7FEE7FEE704480549A6
:10026000054A064B70470000A123000889010008D9
:10027000280200202808002028040020280400204C
:1002800053EA020C00F069802DE9F04B4FF00006B4
:10029000002B1FBFB3FA83F503FA05F424FA05F621
:1002A0005E4012BF1643B2FA82F502FA05F4C5F1B8
:1002B00020051EBF22FA05FC44EA0C04203556EA4C
:1002C000044C4FEA144418BF641C4FF000084FF070
:1002D0000009904271EB030C39D3002919BFB1FA20
:1002E00081F701FA07F6B0FA80F700FA07F6C7F1CE
:1002F00020071EBF20FA07FC46EA0C062037B6FB93
:10030000F4FCA7EB0507103F07F01F0BCBF120060D
:100310000CFA0BFB2CFA06F644BFB3460026202F3E
:10032000A4BF5E464FF0000B5BEA060C08BF4FF01F
:10033000010B19EB0B09ABFB027C48EB0608C01B59
:1003400006FB02CC0BFB03CC71EB0C01C1E70B46A7
:10035000024641464846BDE8F08B13B54FF0000019
:100360004FF00001AFF30080BDE81C407047000073
:100370000FB4044910B503AA029800F079F910BC33
:100380005DF814FB1C01002070B504468569006807
:10039000C10601D5302600E02026C00707D070BD79
:1003A000D4E9012130469047206A401C20626D1E2E
:1003B000F6D570BD70B5044685690078C00707D1D1
:1003C00070BDD4E9012120209047206A401C2062A2
:1003D0006D1EF6D570BD000070B504460D46214671
:1003E0001068AFF300802188090502D50F4A7A44CE
:1003F00002E00E4A7A440E32002104F1240305E0A3
:1004000000F00F060009965D5E54491C0028F7D1E4
:1004100020780023000704D5702D02D009B10223F3
:1004200011322046BDE8704000F0C8B80526000033
:100430002DE9F05F894604464FF0000ADFF824B149
:10044000FB44C0F820A02046E168884700287DD002
:10045000252806D0D4E901219047206A401C20625B
:10046000F1E700255F462046E168884720280646D8
:1004700007DB312E05D2B81910F8200C08B105435E
:10048000F1E7A80701D525F00405C4F81CA0002752
:10049000C4F818A02A2E09D0304602F00BFA38B35F
:1004A00004EB8708303EC8F8186019E059F8041BBF
:1004B000204604EB87029161E1688847012F0646D8
:1004C00018D1E069002820DA25F020051DE0D8F8D1
:1004D000180000EB800006EB40003038C8F8180028
:1004E0002046E1688847064602F0E4F90028EED18C
:1004F000012F0AD02E2E08D12046E16888477F1CA4
:100500000646022F45F02005C4DBA069002803DA67
:10051000404245F00105A061E80701D025F0100533
:10052000A6B1A6F14100192802D8203645F400658D
:100530004A463146204625604D46FFF75FFE60B1D2
:10054000012807D0ED1D25F0070000E007E000F1CD
:10055000080978E705F1040975E730467AE7206A6B
:10056000BDE8F09FDB2500004FF0000200B5134608
:1005700094469646203922BFA0E80C50A0E80C50C3
:10058000B1F12001BFF4F7AF090728BFA0E80C5074
:1005900048BF0CC05DF804EB890028BF40F8042B6D
:1005A00008BF704748BF20F8022B11F0804F18BFDA
:1005B00000F8012B70477047704770472DE9F047EE
:1005C0000D4699469246044600F1240801688806C3
:1005D00004D5E06921F01001216000E00120A8426B
:1005E00001DD471B00E00027A1697A1902EB090031
:1005F000081AA0612078C00602D42046FFF7C4FE86
:10060000002608E0D4E901211AF806009047206A84
:10061000401C761C20624E45F4DB2078C0060AD5CB
:100620002046FFF7B1FE06E0D4E9012130209047D3
:10063000206A401C2062381EA7F10107F4DC07E0A5
:10064000D4E9012118F805009047206A401C206277
:10065000281EA5F10105F3DC2046FFF7ABFE20784C
:10066000000602D50220BDE8F0870120FBE700006C
:10067000074B70B50D467B4400F011F80446284640
:1006800000F020F810B14FF0FF3070BD204670BD73
:100690004B22000001694A1C02610878704700B5CE
:1006A0008FB0CDE901310021059105497944CDE9AB
:1006B000031011466846FFF7BBFE0FB000BD0000F7
:1006C000E5FFFFFF007B00F08000704710B5424857
:1006D0005421FFF749FF41485421FFF745FF4048A7
:1006E0005421FFF741FF3F493B483C4A3F4B0860DC
:1006F0003D490A603A491960531C0365481C10655E
:10070000012008653B48344A39A1784400F01CF9BF
:1007100020B9384878440A3800F0BBF937482F4AE6
:1007200035A1784400F010F920B9344878440A38EB
:1007300000F0AFF932482A4A2FA1784400F004F9BA
:1007400020B92F4878440A3800F0A3F94023224802
:10075000DC000021224600F0D4F820B1254878447E
:10076000543800F096F91D4822464023002100F03D
:10077000C8F820B121487844543800F08AF9184864
:1007800022461023002100F0BCF8002806D01C48A7
:100790007844BDE81040563800F07BB910BD1048D1
:1007A00070B5006D20F001040B4800F043F90B48D0
:1007B00000F040F90A4800F03DF909E0206D20F012
:1007C0000105204600F036F9204600F073F82C466B
:1007D000002CF3D170BD0000C80000201C010020D7
:1007E00070010020200000202400002028000020AC
:1007F0007200000022230000770000000E2300009A
:10080000FA2200000EB5CDE9000100F0DDFA0290F9
:1008100069460120ABBE0EBD08B5694600900220B6
:10082000ABBE08BD1FB58DE8070069460520ABBE0D
:1008300004B010BD1FB58DE80F0069460620ABBEA1
:10084000F6E708B5694600900920ABBE08BD1CB5A7
:10085000CDE9000169460A20ABBE1CBD704708B552
:10086000694600900C20ABBE08BD754600F018F933
:10087000AE4605006946534620F00700854618B08D
:1008800020B5FFF7EBFCBDE820404FF000064FF02D
:1008900000074FF000084FF0000B21F00701AC46B5
:1008A000ACE8C009ACE8C009ACE8C009ACE8C009D4
:1008B0008D46704770B50446051F00F0F7F80068D4
:1008C000002C14BF446870BD002C18BFAC423CBF64
:1008D00020466468F8D301680A18AA4218BF456028
:1008E00003D12A6805461144016028684119A142D4
:1008F0001CBF6C6070BD6168696021680844286035
:1009000070BD70B5C468A50713D0650211D4B2F5E7
:10091000807F09D0B2F5007F06D0B2F5806F08D194
:10092000012300F1240106E05D1E6FF07F46B54211
:1009300001D3012070BD0161C361416024F4706185
:100940001143C160002070BD2DE9F0410C460746FF
:100950001646104600F06EF82078611C61280AD017
:10096000722802D077283CD102E00125002405E05E
:100970000225042402E0082448F2020511F8010BC4
:100980002B2806D0622809D011F8010C74280AD04F
:100990000BE045F0030544F00204EFE745F00405E1
:1009A00044F00104EAE744F0100438462146FFF71A
:1009B00029FF411C15D00021316171604FF4007195
:1009C000F560F1617061200704D5304602220021F4
:1009D00000F0E6F8306D40F0010030653046BDE8CB
:1009E000F0810020FBE72DE9F0410D460646104C52
:1009F000206DC10704D0410804D020F00104F7E7BE
:100A000022460EE0542000F09CF807000ED0206D26
:100A100047F001010843542120653846FFF7A4FD43
:100A20003A4629463046BDE8F0418DE70020D6E73A
:100A3000C80000202DE9F04704464FF000094FF0B0
:100A4000FF37C568D4E90486A80707D0204600F020
:100A500057F93046FFF7E0FE002802DA3846BDE8D5
:100A6000F087280502D54046FFF724FF4C21204699
:100A7000FFF77AFD206D20F0010020654846EEE783
:100A800010B50446AFF300802046BDE81040FFF7E4
:100A9000D1BB10B500F07EF9BDE8104000F074B98C
:100AA00000487047C40100207047000000487047AC
:100AB000CC010020704770477047704738B5044636
:100AC0000A4600206946AFF30080002808BF38BD01
:100AD00002460099204600F0A4F9012038BD01200B
:100AE00000F0F3B9F8B5AFF30080054600200C46DE
:100AF000102000BF0646A819A0420DD9324669460B
:100B00000020AFF30080070008BF00F0DEF9009876
:100B1000A04218BF0546C419FFF7C8FF0560074685
:100B2000F01D20F007004619284600F073F9B44282
:100B300008BFF8BDA21B31463868BDE8F84000F098
:100B400070B970B50646FFF7B1FF056806F10B00F6
:100B500020F00704B4429CBF002070BD2B466A6899
:100B6000BAB11068A04210D304F1080188423CBF1A
:100B70005068586007D35168101941601168091B0B
:100B8000016058601460101D70BD13465268002A41
:100B9000E7D121462846FFF791FF0028DED170BD3E
:100BA0002DE9F041044616460D464769007B800753
:100BB0002ED03846FFF745FE50BB3EB3012E02D083
:100BC000022E25D104E0204600F045F905441DE041
:100BD0003846FFF744FEE168002841F01001E1606B
:100BE00005DA204600F058F80120BDE8F081C9037D
:100BF0000BD56268E16A914200D81146A26911449E
:100C00002269891A814200DD08460544002D01DA77
:100C10000220EAE7E16A6068E268814206D2910355
:100C2000E06203D522F4003141F01002A6690027EA
:100C3000AE4213DCE16A814201D90B4600E0034673
:100C400003EB060C2369ACEB030CAC4506DD8142DB
:100C500001D98C4600E084469C4505D1A7602760F9
:100C600042F02000A5620DE0AD1BE669AE1B81429B
:100C7000A66000D90846C01A281A2060581960607A
:100C800022F0200003490840E060002084F848700A
:100C9000ABE70000BFCFD7FFC16821F4001141F0DE
:100CA0008001C16000218160016070472DE9F0473B
:100CB000814614460E464FF0FF383248D5685769D2
:100CC000054209D03846A169FFF7C1FD002811DBB4
:100CD0002C48C0430540E5602B463246494638461D
:100CE000FFF7A0FDA16920F00042B21A11440028CC
:100CF000A16103D02046FFF7CFFF4046BDE8F08753
:100D000070B504460569C06A6168884200D8084623
:100D1000E16821F42011E160C90312D5A84208D08E
:100D20002246411B2846FFF7C1FF10B14FF0FF30AC
:100D300070BD0020E562C4E90150E06820F4803015
:100D4000E060002070BD10B50446C06820F02000AF
:100D5000E060A16AA06988420DD02046FFF7D0FF6D
:100D6000E06820F4405040F01000E060A06AA0610C
:100D70002069E062606044F24001E0688843E0601E
:100D800010BD000010000200002801D000F03CB8A7
:100D90007047000010B5014602A000F07DF8012068
:100DA00010BD000053494752545245443A20526501
:100DB0006469726563743A2063616E2774206F7092
:100DC000656E3A200000000010B5431C02E010F8E8
:100DD000011B71B18107FAD14FF0013202C88C1AA0
:100DE0008C4314EAC211F9D0C01A0A0603D0C01EFF
:100DF00010BDC01A10BD0A0401D0801E10BD09022A
:100E0000FCD0401E10BD000001491820ABBEFEE71B
:100E10002600020000210160C0E901107047102087
:100E20007047034640688C46002818BF88423CBF84
:100E300003464068F8D318681844884207D00CF17C
:100E4000030020F00700001D411A521A0146081D38
:100E50000A60FFF72FBD10B50146C268900703D0A6
:100E6000900607D5886A0AE000F03EF8012101608B
:100E7000881E10BD8B69486818440B69C01A91F828
:100E800048301BB191F84910401A10BD1103FCD530
:100E90000028FADD401E10BD70B505460C460A203C
:100EA00000E06D1C00F018F835B128780028F8D162
:100EB00002E0641C00F010F814B120780028F8D18A
:100EC000BDE870400A2000F007B810B500F010F837
:100ED000BDE81040FFF758BF08B569468DF800001F
:100EE0000320ABBE08BD000000487047C4010020CD
:100EF00010B5012805D0002103A0FFF7CDFF012088
:100F000010BD09A1F8E7000053494752544D454D23
:100F10003A204F7574206F662068656170206D659A
:100F20006D6F7279000000003A2048656170206D95
:100F3000656D6F727920636F72727570746564008D
:100F40000146C1EBC10202EB42024FF0E0235A61BD
:100F500000229A611A46126942F001021A6100BF2A
:100F60004FF0E022106900F001021AB100F4803263
:100F7000002AF5D04FF0E022126922F001024FF072
:100F8000E0231A6100229A617047000000B587B023
:100F900000BF002001902348006840F0080021496C
:100FA00008600846006800F00800019000BF00BF1C
:100FB00040200290002003900120049002A91A48CA
:100FC00000F074F820200290012003900320059087
:100FD0000120049002A9144800F068F880200290D3
:100FE00001200390032005900120049002A90E48DF
:100FF00000F05CF81020029001200390032005907F
:101000000120049002A9084800F050F8082002903E
:10101000002003900120049002A9034800F046F844
:1010200007B000BD30380240000C024070B50446E5
:1010300000228021174800F03BF90120FFF780FFD4
:1010400000250AE01449485D01F014F91349485598
:101050001020FFF775FF681CC5B2092DF2DB0122D5
:1010600080210C4800F024F90C48407820700B488F
:10107000C078607009480079A07008484079E07035
:101080000648807920710548C07960710348007A6C
:10109000A07170BD000C0240EE290008BC000020C9
:1010A00000BFFEE7704772B600BFFEE7F8B5024624
:1010B0000B460025002400200021D6E0012606FA78
:1010C00001F51E6806EA0504AC4274D11E7906F0EB
:1010D0000306012E04D01E7906F00306022E13D15A
:1010E00090684F000326BE40B0434F00DE68BE400C
:1010F00030439060506801268E40B0431E79C6F39D
:1011000000168E40304350601E7906F00306032E11
:1011100009D0D0684F000326BE40B0434F009E6800
:10112000BE403043D0601E7906F00306022E13D174
:10113000CF0802F1200656F827004E07F70E0F26BB
:10114000BE40B0434F07FF0E1E69BE403043CF087C
:1011500002F1200646F8270010684F000326BE4023
:10116000B0431E7906F003064F00BE4030431060C6
:101170005E6806F44036002E76D000BF002600964A
:101180003C4E366846F480463A4F3E603E463668EE
:1011900006F48046009600BF00BF374E8F0856F811
:1011A00027008E07370F0F26BE40B043334EB242A2
:1011B00002D1002624E057E0314EB24201D101268F
:1011C0001EE0304EB24201D1022619E02E4EB2424C
:1011D00001D1032614E02D4EB24201D104260FE0C6
:1011E0002B4EB24201D105260AE02A4EB24201D16D
:1011F000062605E0284EB24201D1072600E0082667
:101200008F073F0FBE4030431B4E8F0846F8270024
:10121000224E3068A0435E6806F4801606B1204373
:101220001E4E3060361D3068A0435E6806F400161E
:1012300006B12043194E361D3060184E361F3068F7
:10124000A0435E6806F4003606B12043134E361FF5
:101250003060361F3068A0435E6806F4803606B101
:1012600020430E4E083E3060491C1029FFF426AF83
:10127000F8BD000044380240083801400000024038
:101280000004024000080240000C0240001002402E
:101290000014024000180240001C0240083C0140BB
:1012A000024613690B400BB1012000E0002070479B
:1012B0000AB1816101E00B04836170470148006855
:1012C00070470000100000200348006803490978B7
:1012D00008440149086070471000002018000020F1
:1012E00010B50D48006840F400700B4908600846CE
:1012F000006840F4806008600846006840F4807030
:101300000860032000F092F80F2000F007F800F0CA
:101310002BF8002010BD0000003C024070B50446D0
:101320000E4800784FF47A71B1FBF0F00C4909686F
:10133000B1FBF0F5284600F01BFC08B1012070BDA0
:10134000102C07D200222146501E00F031F805482B
:10135000046001E00120F2E70020F0E7180000201F
:101360001C0000201400002008B500BF00200090E1
:101370000E48006840F480400C4908600846006848
:1013800000F48040009000BF00BF00BF002000902C
:10139000081F006840F08050091F08600846006878
:1013A00000F08050009000BF00BF08BD44380240EC
:1013B0002DE9F05F80460D461646002701F05EFAE3
:1013C000074639462A46334601F00700C0F1070AAE
:1013D000BAF1040F02D94FF0040A01E0C0F1070A84
:1013E000D14600F1040ABAF1070F02D24FF0000A09
:1013F00001E0A0F1030AD4464FF0010A0AFA09FA03
:10140000AAF1010A0AEA020A0AFA0CFA4FF0010BE1
:101410000BFA0CFBABF1010B0BEA030B4AEA0B04D2
:101420002146404601F032FABDE8F09F00BF00F0CF
:101430000702064B19684FF6FF031940044B0B4394
:1014400043EA0221014B196000BF70470CED00E038
:101450000000FA0570B504460D460CB9012070BDB8
:101460005848006800F00700A84209D255490D709D
:101470000846006800F00700A84201D00120EEE70E
:10148000207800F0020002281DD1207800F004002E
:10149000042805D14C48006840F4E0504A490860EF
:1014A000207800F00800082805D14748006840F47B
:1014B0006040454908604448006820F0F000A16899
:1014C000084341490860207800F00100A8B3606833
:1014D000012807D13C4808380068C0F34040B8B93B
:1014E0000120BCE76068022802D06068032807D1A9
:1014F000354808380068C0F3406048B90120AEE7BD
:10150000314808380068C0F3400008B90120A6E758
:101510002D48006820F00300616808432A490860EC
:10152000FFF7CCFE064609E0FFF7C8FE801B41F23C
:101530008831884202D9032091E707E022480068F9
:1015400000F00C006168B0EB810FEDD11D48006820
:1015500000F00700A84209D91A490D700846006832
:1015600000F00700A84201D0012078E7207800F0C1
:101570000400042807D11448006820F4E050E16812
:10158000084311490860207800F00800082808D1B5
:101590000D48006820F46040216940EAC1000A4912
:1015A000086000F03FF808490968C1F30311074AD1
:1015B000515CC8400649086006480068FFF7AEFE67
:1015C00000204CE7003C024008380240D6290008C1
:1015D0001C00002014000020014800687047000033
:1015E0001C00002000B5FFF7F7FF04490968C1F3AC
:1015F0008221034A515CC84000BD00000838024007
:10160000E629000800B5FFF7E7FF04490968C1F3C0
:101610004231034A515CC84000BD00000838024016
:10162000E62900082DE9F047002400250026A14600
:101630002548006800F00C0020B1042805D00828D7
:101640003AD105E0DFF8849039E0DFF8849036E0A5
:101650001D48001F006800F03F041B48001F006881
:1016600000F4800078B11A481749091F0968C1F3CE
:101670008811A0FB01700146224600233846FEF780
:10168000FFFD05460EE011480F49091F0968C1F327
:101690008811A0FB01700146224600233846FEF760
:1016A000EFFD05460848001F0068C0F30140401CDC
:1016B0004600B5FBF6F902E0DFF8109000BF00BF6E
:1016C0004846BDE8F0870000083802400024F400D6
:1016D00000127A00F8B504460CB90120F8BD207854
:1016E00000F00100002874D0F948006800F00C00F8
:1016F00004280DD0F648006800F00C00082813D12B
:10170000F348001F006800F48000B0F5800F0BD193
:10171000EF4808380068C0F34040002859D060689E
:10172000002856D10120D9E700BF6068B0F5803F9E
:1017300008D1E7480838006840F48030E4490839A7
:1017400008601EE06068B0F5A02F0DD1E0480838B1
:10175000006840F48020DE490839086008460068C7
:1017600040F4803008600CE0D9480838006820F464
:101770008030D749083908600846006820F4802086
:10178000086000BF606890B1FFF798FD054606E06D
:10179000FFF794FD401B642801D903209EE7CC4845
:1017A00008380068C0F340400028F1D011E0FFF78E
:1017B00085FD054606E0FFF781FD401B642801D941
:1017C00003208BE7C24808380068C0F34040002877
:1017D000F1D1207800F0020002285FD1BC480068F7
:1017E00000F00C0058B1BA48006800F00C0008285E
:1017F0001CD1B748001F006800F48000B0B9B4489D
:1018000008380068C0F3400020B1E068012801D02A
:10181000012063E7AE480838006820F0F80021692D
:1018200040EAC100AA490839086037E0E06800B31F
:101830000120A8490860FFF741FD054606E0FFF7D3
:101840003DFD401B022801D9032047E7A048083886
:101850000068C0F340000028F1D09D4808380068B7
:1018600020F0F800216940EAC10099490839086070
:1018700014E0002097490860FFF720FD054606E0C8
:10188000FFF71CFD401B022801D9032026E79048E2
:1018900008380068C0F340000028F1D1207800F03B
:1018A000080008282CD16069A8B101208A49086085
:1018B000FFF704FD054606E0FFF700FD401B022888
:1018C00001D903200AE782486C300068C0F3400069
:1018D0000028F1D014E000207F490860FFF7EEFCFB
:1018E000054606E0FFF7EAFC401B022801D9032069
:1018F000F4E677486C300068C0F340000028F1D16E
:10190000207800F00400042870D100277048383097
:10191000006800F0805090B900BF002000906C4833
:101920003830006840F08050694938310860084616
:10193000006800F08050009000BF00BF012767489A
:10194000006800F48070B0B96448006840F48070AA
:1019500062490860FFF7B2FC054606E0FFF7AEFCFF
:10196000401B022801D90320B8E65C48006800F457
:1019700080700028F2D000BFA068012808D1544828
:101980006830006840F001005149683108601DE08E
:10199000A06805280DD14E486830006840F004006A
:1019A0004B49683108600846006840F00100086053
:1019B0000CE047486830006820F001004449683175
:1019C00008600846006820F00400086000BFA068B6
:1019D000A8B1FFF773FC054609E0FFF76FFC401B59
:1019E00041F28831884202D9032077E626E0384860
:1019F00068300068C0F340000028EED013E0FFF725
:101A00005DFC054608E0FFF759FC401B41F28831B8
:101A1000884201D9032061E62D4868300068C0F390
:101A200040000028EFD1012F07D129483830006845
:101A300020F0805026493831086000BFA069002896
:101A400045D02348006800F00C0008285DD0A0694C
:101A5000022845D100201F490866FFF72FFC0546E4
:101A600006E0FFF72BFC401B022801D9032035E6D6
:101A7000174808380068C0F340600028F1D1D4E965
:101A800007010843616A40EA81110122A06AC2EBA2
:101A9000500041EA00412C20005D41EA00600C4901
:101AA000091F086001200B490866FFF707FC05467F
:101AB00006E0FFF703FC401B022801D903200DE6D6
:101AC000034808380068C0F340600028F1D049E0BE
:101AD0000838024000004742800E47420070004034
:101AE000002021490866FFF7E9FB054606E0FFF7FD
:101AF000E5FB401B022801D90320EFE51B480068E5
:101B0000C0F340600028F2D12CE0A069012800D188
:101B1000E4E51648001D0668A069012820D006F4F7
:101B20008001E06981421BD106F03F01206A8142B9
:101B300016D147F6C0703040616AB0EB811F0FD1FB
:101B400006F440310122A06AC2EB5000B1EB004F15
:101B500006D106F070612C20005DB1EB006F01D062
:101B60000120BBE50020B9E50000474200380240F3
:101B700070B504462546681EB0F1807F01D3012070
:101B80000FE0681E4FF0E02148610F214FF0FF3059
:101B900000F07CFE00204FF0E02188610720086102
:101BA000002070BD10B50346002200BF93F83C0032
:101BB000012801D1022010BD012083F83C0000BFA4
:101BC00022F0FF00CC6840EA040222F440708C68E6
:101BD00040EA040222F480604C6840EA040222F4E5
:101BE00000600C6840EA040222F480500C6940EA6C
:101BF000040222F400504C6940EA040222F48040BE
:101C0000CC6940EA04021868426400BF002083F8EF
:101C10003C0000BF00BFCEE730B502460B4600BF18
:101C200092F83C00012801D1022030BD012082F849
:101C30003C0000BF022082F83D0010684468106834
:101C4000816824F070041868044310684460184DDB
:101C50001068A8421BD01068B0F1804F17D0154D06
:101C60001068A84213D0144D1068A8420FD0134D2D
:101C70001068A8420BD0124D1068A84207D0114D31
:101C80001068A84203D0104D1068A84205D121F079
:101C900080015868014310688160012082F83D008E
:101CA00000BF002082F83C0000BF00BFBDE700007D
:101CB000000001400004004000080040000C00400B
:101CC00000040140004001400018004010B586B0FB
:101CD0000446142101A8FEF747FC124920688842F7
:101CE0001DD100BF002000900F48006840F0100098
:101CF0000D4908600846006800F01000009000BF21
:101D000000BF4FF4D44001900220029000200390C5
:101D100004900120059001A90448FFF7C7F906B017
:101D200010BD0000000001403038024000100240A9
:101D30002DE9F04104460D461646002700BF94F8F1
:101D40003C00012802D10220BDE8F081012084F886
:101D50003C0000BF36B1042E1BD0082E31D00C2E13
:101D60005ED145E02946206800F094FB2068806938
:101D700040F00800216888612068806920F0040034
:101D80002168886120688069296908432168886121
:101D900048E02946206800F0B5FB2068806940F4DF
:101DA0000060216888612068806920F48060216873
:101DB000886120688069296940EA0120216888617A
:101DC00030E02946206800F0DBFB2068C06940F065
:101DD00008002168C8612068C06920F004002168FB
:101DE000C8612068C069296908432168C86119E091
:101DF0002946206800F000FC2068C06940F40060BB
:101E00002168C8612068C06920F480602168C861C9
:101E10002068C069296940EA01202168C86101E0A1
:101E2000012700BF00BF00BF002084F83C0000BFB6
:101E3000384689E710B504460CB9012010BD94F866
:101E40003D0028B9002084F83C00204600F026F828
:101E5000022084F83D00211D206800F0ABFA01202B
:101E600084F8460000BF84F83E0001213F20015560
:101E7000402001554120015500BF00BF012084F8DA
:101E8000420043200155442001554520015500BF23
:101E9000012084F83D000020D0E7000008B50A4A80
:101EA000016891420FD100BF0021009107490968E4
:101EB00041F00101054A11601146096801F0010174
:101EC000009100BF00BF08BD00000140443802403F
:101ED00010B504460CB9012010BDA06900B100E0A6
:101EE00000BF94F8410028B9002084F84000204643
:101EF00000F02AF8242084F841002068C06820F40B
:101F000000502168C860204600F0A0FB20680069EE
:101F100020F49040216808612068406920F02A0080
:101F2000216848612068C06840F400502168C8609A
:101F300000206064202084F8410084F842000020E2
:101F4000606300BFC8E7000010B586B004461421E6
:101F500001A8FEF709FB1B492068884230D100BF69
:101F6000002000901848006840F0100016490860F2
:101F70000846006800F01000009000BF00BF00BFDE
:101F80000020009010481438006840F001000E490D
:101F9000143908600846006800F00100009000BF96
:101FA00000BF4FF4C0600190022002900020039017
:101FB000032004900720059001A90448FFF776F854
:101FC00006B010BD0010014044380240000002403D
:101FD00000BFFEE700B587B0142102A8FEF7C4FADF
:101FE00000BF002001905748006840F0100055499C
:101FF00008600846006800F01000019000BF00BFB4
:1020000000BF002001900846006840F08000086092
:102010000846006800F08000019000BF00BF00BFCC
:10202000002001900846006840F001000860084662
:10203000006800F00100019000BF00BF00BF002059
:1020400001900846006840F00800086008460068F3
:1020500000F00800019000BF00BF00BF0020019009
:102060000846006840F0020008600846006800F07A
:102070000200019000BF00BF00227F213248FFF71D
:1020800017F9002208213148FFF712F900224FF416
:102090004B612F48FFF70CF900224FF400712D48D7
:1020A000FFF706F97F2002900120039004900020A2
:1020B000059002A92448FEF7F9FF082002900120AC
:1020C000039004900020059002A92048FEF7EEFF3F
:1020D0004FF404400290002003900120049002A9D4
:1020E0001948FEF7E3FF4FF440600290012003908F
:1020F00004900020059002A91548FEF7D7FF48205C
:102100000290002003900120049002A91048FEF7DD
:10211000CDFFB02002900120039000200490059094
:1021200002A90B48FEF7C2FF4FF400700290012095
:10213000039004900020059002A90648FEF7B6FF20
:1021400007B000BD303802400010024000000240DD
:10215000000C02400004024000B591B000200F9036
:1021600010901C2108A8FEF7FFF920216846FEF711
:10217000FBF92E482E4908601420486000212C48A5
:102180008160C721C1600021016141618161FFF768
:1021900051FE08B1FEF787FF00200F9010900FA9A5
:1021A0002348FFF739FD08B1FEF77DFF6020089056
:1021B000002009900A900B900C900D900E90002238
:1021C00008A91B48FFF7B4FD08B1FEF76CFF042215
:1021D00008A91748FFF7ACFD08B1FEF764FF082215
:1021E00008A91348FFF7A4FD08B1FEF75CFF0C2215
:1021F00008A90F48FFF79CFD08B1FEF754FF002027
:10220000009001900290039004904FF400500590CC
:102210000020079069460648FFF7C4FC08B1FEF7A6
:1022200042FF0348FFF752FD11B000BD000001401E
:102230002C00002010B50B480B4908604FF4E1302A
:102240004860002108488160C16001610C21416142
:1022500000218161C161FFF73BFE08B1FEF723FF5A
:1022600010BD0000001001407400002000BFFEE718
:1022700000BFFEE770B505460026012425E00022D8
:1022800010211648FFF714F804EA050028B10122CE
:1022900020211248FFF70CF804E0002220210F480B
:1022A000FFF706F80520FEF74BFE012210210B4830
:1022B000FEF7FEFF40210948FEF7F2FF00B126437A
:1022C0000520FEF73DFE6006040E002CD7DC01223F
:1022D00020210248FEF7ECFF304670BD000C0240A2
:1022E0007047704710B5FEF7EFFF10BD00B593B013
:1022F000302107A8FEF738F9142102A8FEF734F9B7
:1023000000BF002001902448006840F0805022491E
:1023100008600846006800F08050019000BF00BFD0
:1023200000BF002001901D48006840F480401B4918
:1023300008600846006800F48040019000BF00BFBC
:10234000012007900004089002200D9041050E9195
:1023500008210F914FF4A8711091022111910421CD
:10236000129107A8FFF7B6F908B1FEF79CFE0F20FF
:10237000029002200390002004904FF4A05005909A
:102380004FF480500690052102A8FFF763F808B1CA
:10239000FEF789FE13B000BD4038024000700040D7
:1023A0000348006840F4700001490860704700006D
:1023B00088ED00E010B502682B4B98420ED0B0F1CA
:1023C000804F0BD0294B984208D0294B984205D01A
:1023D000284B984202D0284B984203D122F0700239
:1023E0004B681A43204B984220D0B0F1804F1DD04B
:1023F0001E4B98421AD01E4B984217D01D4B984244
:1024000014D01D4B984211D01C4B98420ED01C4B3F
:1024100098420BD01B4B984208D01B4B984205D0DA
:102420001A4B984202D01A4B984203D122F44072C0
:10243000CB681A4322F080034C6943EA04028B689C
:10244000C3620B688362084B984202D00A4B9842E1
:1024500001D10B690363036843F0040303600123A4
:102460004361026010BD0000000001400004004014
:1024700000080040000C0040000401400040014002
:10248000004401400048014000180040001C00408A
:102490000020004030B5026A056A25F0010505629A
:1024A0004368846924F0700424F003040D682C430D
:1024B00022F002028D682A43104DA84200D103E0A9
:1024C0000F4DA84206D100BF22F00802CD682A4372
:1024D00022F00402094DA84202D0094DA84207D1BA
:1024E00023F4807323F400734D692B438D692B43D0
:1024F000436084614D684563026230BD0000014065
:102500000004014030B5026A056A25F01005056235
:102510004368846924F4E04424F440740D6844EA78
:10252000052422F020028D6842EA0512124DA842CD
:1025300000D103E0114DA84207D100BF22F0800274
:10254000CD6842EA051222F040020B4DA84202D0AB
:102550000A4DA84209D123F4806323F400634D6936
:1025600043EA85038D6943EA8503436084614D68CE
:102570008563026230BD000000000140000401409C
:1025800030B5026A056A25F4807505624368C4693E
:1025900024F0700424F003040D682C4322F400722C
:1025A0008D6842EA0522124DA84200D103E0114D88
:1025B000A84207D100BF22F40062CD6842EA05229A
:1025C00022F480620A4DA84202D00A4DA84209D1E5
:1025D00023F4805323F400534D6943EA05138D69B6
:1025E00043EA05134360C4614D68C563026230BDB0
:1025F000000001400004014030B5036A056A25F47B
:10260000805505624468C26922F4E04222F44072B7
:102610000D6842EA052223F400538D6843EA05332E
:10262000084DA84202D0084DA84204D124F48044A9
:102630004D6944EA85144460C2614D6805640362D3
:1026400030BD000000000140000401402DE9F84FBA
:1026500004462068006920F44050E168084321687E
:1026600008612169A068084361690843E16908437A
:1026700000902068C06849F20C61884300990843C3
:102680002168C8602068406920F44070A16908434F
:102690002168486176492068884203D075492068DE
:1026A000884203D1FEF7AEFF814602E0FEF79AFFB3
:1026B0008146E069B0F5004F6CD102206168A0FB53
:1026C000015003461920A9FB007001462A463846EE
:1026D000FDF7D6FD6421B0FBF1F04FEA001A0220AD
:1026E0006168A0FB01510B461920A9FB00712A4625
:1026F0003846FDF7C5FD834602206168A0FB015006
:1027000003461920A9FB00712A463846FDF7B8FD9B
:102710006421B0FBF1F000EBC00101EB0010ABEB6A
:102720008000322101EBC0006421B0FBF1F000F029
:10273000F8000AEB400A02206168A0FB0150034642
:102740001920A9FB007001462A463846FDF798FD7E
:10275000834602206168A0FB015003461920A9FBB3
:1027600000712A463846FDF78BFD6421B0FBF1F07D
:1027700000EBC00101EB0010ABEB8000322101EB5C
:10278000C0006421B0FBF1F000F007005044216864
:1027900088606AE004206168A0FB015003461920AC
:1027A000A9FB007001462A463846FDF769FD8246BE
:1027B00004206168A0FB015003461920A9FB0070AA
:1027C00001462A463846FDF75BFD6421B0FBF1F077
:1027D00000EBC00101EB0010AAEB8000322101EBFD
:1027E00000106421B0FBF1F000F0F00A04206168F1
:1027F000A0FB017003461920A9FB00513A46284668
:10280000FDF73EFD6421B0FBF1F00AEB001A042055
:102810006168A0FB01510B461920A9FB00712A46F3
:102820003846FDF72DFD834604206168A0FB01506A
:1028300003461920A9FB007001462A463846FDF7D9
:102840001FFD6421B0FBF1F000EBC00101EB0010B3
:10285000ABEB8000322101EB00106421B0FBF1F002
:1028600000F00F00504421688860BDE8F88F000038
:10287000001001400014014000BFFEE7024800685C
:10288000C0F30220704700000CED00E010B50028F6
:1028900004DB0A07130E054A135406E00A07140E58
:1028A000034A00F00F031B1FD45410BD00E400E0E6
:1028B00018ED00E030380A2801D2012070470020CE
:1028C00070470000C2B2054B5A6000BF044A12684C
:1028D0001268C2F38012002AF8D07047001001403D
:1028E000740000201FB5FEF7FBFCFFF7FFFCFFF7AD
:1028F00071FBFFF731FCFFF79DFCFEF747FB1AA0C9
:10290000FDF736FDFEF7DAFC1E490860FEF7D6FC3F
:102910001D49086027E0FEF7D1FC0446194800680D
:10292000201A142804D3174804601848FEF77EFBC9
:1029300015480068201AC82814D3134804601348A7
:10294000807912494979114A1279104BDB78CDE927
:102950000032CDE902100D488378427801780CA04E
:10296000FDF706FD00BFD6E750533220436F6E746B
:10297000726F6C6C6572205465737420537461724D
:10298000740D0A00080000200C0000200000002048
:102990004D3A253032582042313A253032582042C3
:1029A000323A2530325820524C3A25303258205293
:1029B000553A25303258204C4C3A25303258204C6C
:1029C000553A253032580D0A000000004FF0407093
:1029D000E1EE100A70470000000000000000010254
:1029E0000304060708090000000001020304014275
:1029F0000000000000000030313233343536373803
:102A00003941424344454640305800303132333436
:102A10003536373839616263646566403078000462
:102A2000000008000000000000000200010000108B
:102A30003A7474003A7474003A7474005C2A0008A2
:102A4000000000202C000000C4010008882A0008B3
:102A50002C000020FC070000E0010008000000003E
:102A60000000000000000000000000000000000066
:102A700010000000010000000024F400000000002D
:082A800000000000000000004E
:040000050800018965
:00000001FF
